package com.dadaabc.geralt;

/*
 一次日志传输的过程如下：

 19:53:18.929795 IP (tos 0x0, ttl 64, id 15012, offset 0, flags [DF], proto TCP (6), length 443)
    10.1.133.138.60656 > 10.1.136.54.4141: Flags [P.], cksum 0x2370 (incorrect -> 0x9531), seq 6944:7335, ack 189, win 229, options [nop,nop,TS val 1414731671 ecr 34940516], length 391
	0x0000:  0004 0001 0006 e0d5 5ea4 7b4b 0000 0800  ........^.{K....
	0x0010:  4500 01bb 3aa4 4000 4006 dcd6 0a01 858a  E...:.@.@.......
	0x0020:  0a01 8836 ecf0 102d 6157 fda9 15ee e0ab  ...6...-aW......
	0x0030:  8018 00e5 2370 0000 0101 080a 5453 1797  ....#p......TS..
	0x0040:  0215 2664 0000 0009 0000 0002 0000 000d  ..&d............
	0x0050:  0016 6170 7065 6e64 4261 7463 6800 0001  ..appendBatch...
	0x0060:  6a04 0408 6669 6c65 542f 6461 7461 302f  j...fileT/data0/
	0x0070:  6c6f 6773 2f66 6c75 6d65 2d74 6573 742f  logs/flume-test/
	0x0080:  666c 756d 652d 7465 7374 2d6a 6176 612e  flume-test-java.
	0x0090:  6c6f 6714 6865 6164 6572 4b65 7931 0c76  log.headerKey1.v
	0x00a0:  616c 7565 3100 dc01 3230 3139 2d30 332d  alue1...2019-03-
	0x00b0:  3138 2031 393a 3533 3a31 322e 3831 3220  18.19:53:12.812.
	0x00c0:  5b1b 5b31 3b33 336d 6d61 696e 1b5b 303b  [.[1;33mmain.[0;
	0x00d0:  3339 6d5d 201b 5b33 346d 494e 464f 201b  39m]..[34mINFO..
	0x00e0:  5b30 3b33 396d 201b 5b31 3b33 326d 466c  [0;39m..[1;32mFl
	0x00f0:  756d 6546 696c 6553 6f75 7263 6554 6573  umeFileSourceTes
	0x0100:  741b 5b30 3b33 396d 202d 206f 6e6c 696e  t.[0;39m.-.onlin
	0x0110:  6520 3230 3120 0408 6669 6c65 542f 6461  e.201...fileT/da
	0x0120:  7461 302f 6c6f 6773 2f66 6c75 6d65 2d74  ta0/logs/flume-t
	0x0130:  6573 742f 666c 756d 652d 7465 7374 2d6a  est/flume-test-j
	0x0140:  6176 612e 6c6f 6714 6865 6164 6572 4b65  ava.log.headerKe
	0x0150:  7931 0c76 616c 7565 3100 dc01 3230 3139  y1.value1...2019
	0x0160:  2d30 332d 3138 2031 393a 3533 3a31 352e  -03-18.19:53:15.
	0x0170:  3831 3220 5b1b 5b31 3b33 336d 6d61 696e  812.[.[1;33mmain
	0x0180:  1b5b 303b 3339 6d5d 201b 5b33 346d 494e  .[0;39m]..[34mIN
	0x0190:  464f 201b 5b30 3b33 396d 201b 5b31 3b33  FO..[0;39m..[1;3
	0x01a0:  326d 466c 756d 6546 696c 6553 6f75 7263  2mFlumeFileSourc
	0x01b0:  6554 6573 741b 5b30 3b33 396d 202d 206f  eTest.[0;39m.-.o
	0x01c0:  6e6c 696e 6520 3230 3220 00              nline.202..
19:53:19.005365 IP (tos 0x0, ttl 63, id 30565, offset 0, flags [DF], proto TCP (6), length 75)
    10.1.136.54.4141 > 10.1.133.138.60656: Flags [P.], cksum 0x54a3 (correct), seq 189:212, ack 7335, win 498, options [nop,nop,TS val 34945530 ecr 1414731671], length 23
	0x0000:  0000 0001 0006 cc8e 71a8 cfd1 0000 0800  ........q.......
	0x0010:  4500 004b 7765 4000 3f06 a285 0a01 8836  E..Kwe@.?......6
	0x0020:  0a01 858a 102d ecf0 15ee e0ab 6157 ff30  .....-......aW.0
	0x0030:  8018 01f2 54a3 0000 0101 080a 0215 39fa  ....T.........9.
	0x0040:  5453 1797 0000 0009 0000 0003 0000 0000  TS..............
	0x0050:  0000 0001 0000 0000 0200 00              ...........
19:53:19.005413 IP (tos 0x0, ttl 64, id 15013, offset 0, flags [DF], proto TCP (6), length 52)
    10.1.133.138.60656 > 10.1.136.54.4141: Flags [.], cksum 0x21e9 (incorrect -> 0x5779), seq 7335, ack 212, win 229, options [nop,nop,TS val 1414731747 ecr 34945530], length 0
	0x0000:  0004 0001 0006 e0d5 5ea4 7b4b 0000 0800  ........^.{K....
	0x0010:  4500 0034 3aa5 4000 4006 de5c 0a01 858a  E..4:.@.@..\....
	0x0020:  0a01 8836 ecf0 102d 6157 ff30 15ee e0c2  ...6...-aW.0....
	0x0030:  8010 00e5 21e9 0000 0101 080a 5453 17e3  ....!.......TS..
	0x0040:  0215 39fa                                ..9.

  类似于3次握手的过程



 */
